{
  "contractName": "Flight",
  "abi": [
    {
      "constant": true,
      "inputs": [],
      "name": "_status",
      "outputs": [
        {
          "name": "",
          "type": "uint8"
        }
      ],
      "payable": false,
      "stateMutability": "view",
      "type": "function",
      "signature": "0x0fb3844c"
    },
    {
      "constant": true,
      "inputs": [],
      "name": "_flightId",
      "outputs": [
        {
          "name": "",
          "type": "bytes32"
        }
      ],
      "payable": false,
      "stateMutability": "view",
      "type": "function",
      "signature": "0x1b0d2a68"
    },
    {
      "constant": true,
      "inputs": [],
      "name": "_seatPurchaseIndex",
      "outputs": [
        {
          "name": "",
          "type": "uint256"
        }
      ],
      "payable": false,
      "stateMutability": "view",
      "type": "function",
      "signature": "0x580c4946"
    },
    {
      "constant": true,
      "inputs": [],
      "name": "_seatsRemaining",
      "outputs": [
        {
          "name": "",
          "type": "uint256"
        }
      ],
      "payable": false,
      "stateMutability": "view",
      "type": "function",
      "signature": "0x6e1fc519"
    },
    {
      "constant": false,
      "inputs": [],
      "name": "renounceOwnership",
      "outputs": [],
      "payable": false,
      "stateMutability": "nonpayable",
      "type": "function",
      "signature": "0x715018a6"
    },
    {
      "constant": true,
      "inputs": [],
      "name": "_regulator",
      "outputs": [
        {
          "name": "",
          "type": "address"
        }
      ],
      "payable": false,
      "stateMutability": "view",
      "type": "function",
      "signature": "0x83a3e4d3"
    },
    {
      "constant": true,
      "inputs": [
        {
          "name": "",
          "type": "address"
        },
        {
          "name": "",
          "type": "uint256"
        }
      ],
      "name": "_ownerSeats",
      "outputs": [
        {
          "name": "",
          "type": "uint256"
        }
      ],
      "payable": false,
      "stateMutability": "view",
      "type": "function",
      "signature": "0x89b77f1b"
    },
    {
      "constant": true,
      "inputs": [],
      "name": "_seatCount",
      "outputs": [
        {
          "name": "",
          "type": "uint256"
        }
      ],
      "payable": false,
      "stateMutability": "view",
      "type": "function",
      "signature": "0x8c5d008a"
    },
    {
      "constant": true,
      "inputs": [],
      "name": "owner",
      "outputs": [
        {
          "name": "",
          "type": "address"
        }
      ],
      "payable": false,
      "stateMutability": "view",
      "type": "function",
      "signature": "0x8da5cb5b"
    },
    {
      "constant": true,
      "inputs": [],
      "name": "isOwner",
      "outputs": [
        {
          "name": "",
          "type": "bool"
        }
      ],
      "payable": false,
      "stateMutability": "view",
      "type": "function",
      "signature": "0x8f32d59b"
    },
    {
      "constant": true,
      "inputs": [
        {
          "name": "",
          "type": "bytes32"
        }
      ],
      "name": "_seatIndexFromUuid",
      "outputs": [
        {
          "name": "",
          "type": "uint256"
        }
      ],
      "payable": false,
      "stateMutability": "view",
      "type": "function",
      "signature": "0xadbc2d76"
    },
    {
      "constant": true,
      "inputs": [
        {
          "name": "",
          "type": "address"
        }
      ],
      "name": "_passengerSeat",
      "outputs": [
        {
          "name": "",
          "type": "uint256"
        }
      ],
      "payable": false,
      "stateMutability": "view",
      "type": "function",
      "signature": "0xb794a5eb"
    },
    {
      "constant": true,
      "inputs": [],
      "name": "_seatPrice",
      "outputs": [
        {
          "name": "",
          "type": "uint256"
        }
      ],
      "payable": false,
      "stateMutability": "view",
      "type": "function",
      "signature": "0xea5a3828"
    },
    {
      "constant": true,
      "inputs": [
        {
          "name": "",
          "type": "uint256"
        }
      ],
      "name": "_seats",
      "outputs": [
        {
          "name": "uuid",
          "type": "bytes32"
        },
        {
          "name": "owner",
          "type": "address"
        },
        {
          "name": "passenger",
          "type": "address"
        },
        {
          "name": "price",
          "type": "uint256"
        }
      ],
      "payable": false,
      "stateMutability": "view",
      "type": "function",
      "signature": "0xed9fb5dd"
    },
    {
      "constant": false,
      "inputs": [
        {
          "name": "newOwner",
          "type": "address"
        }
      ],
      "name": "transferOwnership",
      "outputs": [],
      "payable": false,
      "stateMutability": "nonpayable",
      "type": "function",
      "signature": "0xf2fde38b"
    },
    {
      "inputs": [
        {
          "name": "flightId",
          "type": "bytes32"
        }
      ],
      "payable": false,
      "stateMutability": "nonpayable",
      "type": "constructor",
      "signature": "constructor"
    },
    {
      "anonymous": false,
      "inputs": [
        {
          "indexed": true,
          "name": "purchaser",
          "type": "address"
        }
      ],
      "name": "TicketPurchased",
      "type": "event",
      "signature": "0x23443ac3afaec974c2d4368824912f61a50fee541bcc94ec52414ba6a9b14aab"
    },
    {
      "anonymous": false,
      "inputs": [
        {
          "indexed": true,
          "name": "flightId",
          "type": "bytes32"
        }
      ],
      "name": "FlightEnabled",
      "type": "event",
      "signature": "0x296d469580368394d8900bf6d30b751620d09fdda0232dc67a2097955bf54d4c"
    },
    {
      "anonymous": false,
      "inputs": [
        {
          "indexed": true,
          "name": "flightId",
          "type": "bytes32"
        }
      ],
      "name": "FlightLanded",
      "type": "event",
      "signature": "0xd04aa9134d8671223bcf1a1e9772787b447d75097b41dbda4f41feae404140b8"
    },
    {
      "anonymous": false,
      "inputs": [
        {
          "indexed": true,
          "name": "flightId",
          "type": "bytes32"
        }
      ],
      "name": "FlightCancelled",
      "type": "event",
      "signature": "0xd41a2b5527287431a6eb7b2498cbff5d67716e8ced3218eef1177a628d36388f"
    },
    {
      "anonymous": false,
      "inputs": [
        {
          "indexed": true,
          "name": "flightId",
          "type": "bytes32"
        },
        {
          "indexed": true,
          "name": "owner",
          "type": "address"
        },
        {
          "indexed": false,
          "name": "uuid",
          "type": "bytes32"
        }
      ],
      "name": "SeatBooked",
      "type": "event",
      "signature": "0x10fc8468ae793318338006260b422c51971f60e9b1839f18180374c0468cfff1"
    },
    {
      "anonymous": false,
      "inputs": [
        {
          "indexed": true,
          "name": "flightId",
          "type": "bytes32"
        },
        {
          "indexed": false,
          "name": "uuid",
          "type": "bytes32"
        }
      ],
      "name": "SeatCancelled",
      "type": "event",
      "signature": "0x51219a16bbaf2523d2cd0e0ffa450b949fda85877171b868d895be11ab7c63ba"
    },
    {
      "anonymous": false,
      "inputs": [
        {
          "indexed": true,
          "name": "flightId",
          "type": "bytes32"
        },
        {
          "indexed": true,
          "name": "owner",
          "type": "address"
        },
        {
          "indexed": false,
          "name": "uuid",
          "type": "bytes32"
        }
      ],
      "name": "SeatTransferred",
      "type": "event",
      "signature": "0xed9dbc00871ab66fe91b702825c088aad8afa52119bc6d89817a301b553ce04c"
    },
    {
      "anonymous": false,
      "inputs": [
        {
          "indexed": true,
          "name": "flightId",
          "type": "bytes32"
        },
        {
          "indexed": true,
          "name": "owner",
          "type": "address"
        },
        {
          "indexed": false,
          "name": "amount",
          "type": "uint256"
        }
      ],
      "name": "RefundSent",
      "type": "event",
      "signature": "0xef721ab9dbabd936e63830e699f561906f54d10c719c44613ac44907d7f01a11"
    },
    {
      "anonymous": false,
      "inputs": [
        {
          "indexed": true,
          "name": "flightId",
          "type": "bytes32"
        },
        {
          "indexed": true,
          "name": "owner",
          "type": "address"
        },
        {
          "indexed": false,
          "name": "amount",
          "type": "uint256"
        }
      ],
      "name": "FlightConcluded",
      "type": "event",
      "signature": "0x8fb8e8a0b20293ca4c36d58df64f030aca3d302f25e5ecb916fc857cb7402fb6"
    },
    {
      "anonymous": false,
      "inputs": [
        {
          "indexed": true,
          "name": "previousOwner",
          "type": "address"
        }
      ],
      "name": "OwnershipRenounced",
      "type": "event",
      "signature": "0xf8df31144d9c2f0f6b59d69b8b98abd5459d07f2742c4df920b25aae33c64820"
    },
    {
      "anonymous": false,
      "inputs": [
        {
          "indexed": true,
          "name": "previousOwner",
          "type": "address"
        },
        {
          "indexed": true,
          "name": "newOwner",
          "type": "address"
        }
      ],
      "name": "OwnershipTransferred",
      "type": "event",
      "signature": "0x8be0079c531659141344cd1fd0a4f28419497f9722a3daafe3b4186f6b6457e0"
    },
    {
      "constant": false,
      "inputs": [
        {
          "name": "regulator",
          "type": "address"
        }
      ],
      "name": "addRegulator",
      "outputs": [],
      "payable": false,
      "stateMutability": "nonpayable",
      "type": "function",
      "signature": "0xac63f3c7"
    },
    {
      "constant": false,
      "inputs": [
        {
          "name": "seatPrice",
          "type": "uint256"
        }
      ],
      "name": "setSeatPrice",
      "outputs": [],
      "payable": false,
      "stateMutability": "nonpayable",
      "type": "function",
      "signature": "0x0ccc4ff3"
    },
    {
      "constant": false,
      "inputs": [],
      "name": "enableFlight",
      "outputs": [],
      "payable": false,
      "stateMutability": "nonpayable",
      "type": "function",
      "signature": "0x142e8db1"
    },
    {
      "constant": true,
      "inputs": [
        {
          "name": "_index",
          "type": "uint256"
        }
      ],
      "name": "getOwnerSeat",
      "outputs": [
        {
          "name": "",
          "type": "uint256"
        }
      ],
      "payable": false,
      "stateMutability": "view",
      "type": "function",
      "signature": "0x54368090"
    },
    {
      "constant": true,
      "inputs": [],
      "name": "getOwnerSeats",
      "outputs": [
        {
          "name": "",
          "type": "uint256[]"
        }
      ],
      "payable": false,
      "stateMutability": "view",
      "type": "function",
      "signature": "0x60581dcc"
    },
    {
      "constant": false,
      "inputs": [
        {
          "name": "_seatIndex",
          "type": "uint256"
        },
        {
          "name": "_transferTo",
          "type": "address"
        }
      ],
      "name": "transferSeat",
      "outputs": [],
      "payable": false,
      "stateMutability": "nonpayable",
      "type": "function",
      "signature": "0x67767635"
    },
    {
      "constant": false,
      "inputs": [],
      "name": "closeFlight",
      "outputs": [],
      "payable": false,
      "stateMutability": "nonpayable",
      "type": "function",
      "signature": "0xcabaed40"
    },
    {
      "constant": false,
      "inputs": [],
      "name": "landFlight",
      "outputs": [],
      "payable": false,
      "stateMutability": "nonpayable",
      "type": "function",
      "signature": "0x6d399ce6"
    },
    {
      "constant": false,
      "inputs": [],
      "name": "finaliseFlight",
      "outputs": [],
      "payable": false,
      "stateMutability": "nonpayable",
      "type": "function",
      "signature": "0xaa9b81ae"
    },
    {
      "constant": false,
      "inputs": [],
      "name": "cancelFlight",
      "outputs": [],
      "payable": false,
      "stateMutability": "nonpayable",
      "type": "function",
      "signature": "0x09aa69c2"
    },
    {
      "constant": false,
      "inputs": [
        {
          "name": "flightId",
          "type": "bytes32"
        }
      ],
      "name": "setFlightId",
      "outputs": [],
      "payable": false,
      "stateMutability": "nonpayable",
      "type": "function",
      "signature": "0x50f6511c"
    },
    {
      "constant": false,
      "inputs": [
        {
          "name": "seatCount",
          "type": "uint256"
        }
      ],
      "name": "setSeatCount",
      "outputs": [],
      "payable": false,
      "stateMutability": "nonpayable",
      "type": "function",
      "signature": "0xaf41224f"
    },
    {
      "constant": false,
      "inputs": [
        {
          "name": "seatsRemaining",
          "type": "uint256"
        }
      ],
      "name": "setRemainingSeats",
      "outputs": [],
      "payable": false,
      "stateMutability": "nonpayable",
      "type": "function",
      "signature": "0x14e69a9b"
    },
    {
      "constant": false,
      "inputs": [
        {
          "name": "numberOfSeats",
          "type": "uint256"
        }
      ],
      "name": "book",
      "outputs": [],
      "payable": true,
      "stateMutability": "payable",
      "type": "function",
      "signature": "0x1116fd04"
    },
    {
      "constant": false,
      "inputs": [
        {
          "name": "uuid",
          "type": "bytes32"
        }
      ],
      "name": "loadSeat",
      "outputs": [
        {
          "name": "",
          "type": "uint256"
        }
      ],
      "payable": false,
      "stateMutability": "nonpayable",
      "type": "function",
      "signature": "0xf815226d"
    },
    {
      "constant": true,
      "inputs": [
        {
          "name": "index",
          "type": "uint256"
        }
      ],
      "name": "getSeatByIndex",
      "outputs": [
        {
          "name": "",
          "type": "uint256"
        },
        {
          "name": "",
          "type": "bytes32"
        },
        {
          "name": "",
          "type": "address"
        },
        {
          "name": "",
          "type": "address"
        },
        {
          "name": "",
          "type": "uint256"
        }
      ],
      "payable": false,
      "stateMutability": "view",
      "type": "function",
      "signature": "0xb743795b"
    },
    {
      "constant": true,
      "inputs": [
        {
          "name": "uuid",
          "type": "bytes32"
        }
      ],
      "name": "getSeatByUuid",
      "outputs": [
        {
          "name": "",
          "type": "uint256"
        },
        {
          "name": "",
          "type": "bytes32"
        },
        {
          "name": "",
          "type": "address"
        },
        {
          "name": "",
          "type": "address"
        },
        {
          "name": "",
          "type": "uint256"
        }
      ],
      "payable": false,
      "stateMutability": "view",
      "type": "function",
      "signature": "0x2e3487e7"
    },
    {
      "constant": true,
      "inputs": [],
      "name": "getPassengerSeat",
      "outputs": [
        {
          "name": "",
          "type": "uint256"
        },
        {
          "name": "",
          "type": "bytes32"
        },
        {
          "name": "",
          "type": "address"
        },
        {
          "name": "",
          "type": "address"
        },
        {
          "name": "",
          "type": "uint256"
        }
      ],
      "payable": false,
      "stateMutability": "view",
      "type": "function",
      "signature": "0xa3bc2972"
    },
    {
      "constant": false,
      "inputs": [
        {
          "name": "seatIndex",
          "type": "uint256"
        }
      ],
      "name": "cancelSeat",
      "outputs": [],
      "payable": false,
      "stateMutability": "nonpayable",
      "type": "function",
      "signature": "0xa12a4021"
    },
    {
      "constant": true,
      "inputs": [],
      "name": "getSkippedSeatCount",
      "outputs": [
        {
          "name": "",
          "type": "uint256"
        }
      ],
      "payable": false,
      "stateMutability": "view",
      "type": "function",
      "signature": "0x5202a402"
    },
    {
      "constant": false,
      "inputs": [],
      "name": "requestRefund",
      "outputs": [],
      "payable": false,
      "stateMutability": "nonpayable",
      "type": "function",
      "signature": "0xd5cef133"
    },
    {
      "constant": false,
      "inputs": [],
      "name": "concludeFlight",
      "outputs": [],
      "payable": false,
      "stateMutability": "nonpayable",
      "type": "function",
      "signature": "0xad026a36"
    }
  ],
  "bytecode": "0x6080604052600060045534801561001557600080fd5b50604051602080613b3183398101806040528101908080519060200190929190505050336000806101000a81548173ffffffffffffffffffffffffffffffffffffffff021916908373ffffffffffffffffffffffffffffffffffffffff1602179055506000600c60006101000a81548160ff0219169083600581111561009757fe5b0217905550806006816000191690555050613a7a806100b76000396000f3006080604052600436106101cd576000357c0100000000000000000000000000000000000000000000000000000000900463ffffffff16806309aa69c2146101d25780630ccc4ff3146101e95780630fb3844c146102165780631116fd041461024f578063142e8db11461026f57806314e69a9b146102865780631b0d2a68146102b35780632e3487e7146102e657806350f6511c146103a75780635202a402146103d85780635436809014610403578063580c49461461044457806360581dcc1461046f57806367767635146104db5780636d399ce6146105285780636e1fc5191461053f578063715018a61461056a57806383a3e4d31461058157806389b77f1b146105d85780638c5d008a146106395780638da5cb5b146106645780638f32d59b146106bb578063a12a4021146106ea578063a3bc297214610717578063aa9b81ae146107be578063ac63f3c7146107d5578063ad026a3614610818578063adbc2d761461082f578063af41224f14610874578063b743795b146108a1578063b794a5eb1461095e578063cabaed40146109b5578063d5cef133146109cc578063ea5a3828146109e3578063ed9fb5dd14610a0e578063f2fde38b14610ac4578063f815226d14610b07575b600080fd5b3480156101de57600080fd5b506101e7610b4c565b005b3480156101f557600080fd5b5061021460048036038101908080359060200190929190505050610cd7565b005b34801561022257600080fd5b5061022b610d83565b6040518082600581111561023b57fe5b60ff16815260200191505060405180910390f35b61026d60048036038101908080359060200190929190505050610d96565b005b34801561027b57600080fd5b506102846110f0565b005b34801561029257600080fd5b506102b160048036038101908080359060200190929190505050611395565b005b3480156102bf57600080fd5b506102c8611441565b60405180826000191660001916815260200191505060405180910390f35b3480156102f257600080fd5b506103156004803603810190808035600019169060200190929190505050611447565b6040518086815260200185600019166000191681526020018473ffffffffffffffffffffffffffffffffffffffff1673ffffffffffffffffffffffffffffffffffffffff1681526020018373ffffffffffffffffffffffffffffffffffffffff1673ffffffffffffffffffffffffffffffffffffffff1681526020018281526020019550505050505060405180910390f35b3480156103b357600080fd5b506103d6600480360381019080803560001916906020019092919050505061150a565b005b3480156103e457600080fd5b506103ed6115ba565b6040518082815260200191505060405180910390f35b34801561040f57600080fd5b5061042e600480360381019080803590602001909291905050506115c7565b6040518082815260200191505060405180910390f35b34801561045057600080fd5b50610459611706565b6040518082815260200191505060405180910390f35b34801561047b57600080fd5b5061048461170c565b6040518080602001828103825283818151815260200191508051906020019060200280838360005b838110156104c75780820151818401526020810190506104ac565b505050509050019250505060405180910390f35b3480156104e757600080fd5b5061052660048036038101908080359060200190929190803573ffffffffffffffffffffffffffffffffffffffff169060200190929190505050611881565b005b34801561053457600080fd5b5061053d611b8e565b005b34801561054b57600080fd5b50610554611d26565b6040518082815260200191505060405180910390f35b34801561057657600080fd5b5061057f611d2c565b005b34801561058d57600080fd5b50610596611e75565b604051808273ffffffffffffffffffffffffffffffffffffffff1673ffffffffffffffffffffffffffffffffffffffff16815260200191505060405180910390f35b3480156105e457600080fd5b50610623600480360381019080803573ffffffffffffffffffffffffffffffffffffffff16906020019092919080359060200190929190505050611e9b565b6040518082815260200191505060405180910390f35b34801561064557600080fd5b5061064e611ecb565b6040518082815260200191505060405180910390f35b34801561067057600080fd5b50610679611ed1565b604051808273ffffffffffffffffffffffffffffffffffffffff1673ffffffffffffffffffffffffffffffffffffffff16815260200191505060405180910390f35b3480156106c757600080fd5b506106d0611efa565b604051808215151515815260200191505060405180910390f35b3480156106f657600080fd5b5061071560048036038101908080359060200190929190505050611f51565b005b34801561072357600080fd5b5061072c61256a565b6040518086815260200185600019166000191681526020018473ffffffffffffffffffffffffffffffffffffffff1673ffffffffffffffffffffffffffffffffffffffff1681526020018373ffffffffffffffffffffffffffffffffffffffff1673ffffffffffffffffffffffffffffffffffffffff1681526020018281526020019550505050505060405180910390f35b3480156107ca57600080fd5b506107d3612677565b005b3480156107e157600080fd5b50610816600480360381019080803573ffffffffffffffffffffffffffffffffffffffff1690602001909291905050506127dc565b005b34801561082457600080fd5b5061082d6128c2565b005b34801561083b57600080fd5b5061085e60048036038101908080356000191690602001909291905050506129f7565b6040518082815260200191505060405180910390f35b34801561088057600080fd5b5061089f60048036038101908080359060200190929190505050612a0f565b005b3480156108ad57600080fd5b506108cc60048036038101908080359060200190929190505050612abb565b6040518086815260200185600019166000191681526020018473ffffffffffffffffffffffffffffffffffffffff1673ffffffffffffffffffffffffffffffffffffffff1681526020018373ffffffffffffffffffffffffffffffffffffffff1673ffffffffffffffffffffffffffffffffffffffff1681526020018281526020019550505050505060405180910390f35b34801561096a57600080fd5b5061099f600480360381019080803573ffffffffffffffffffffffffffffffffffffffff169060200190929190505050612b4c565b6040518082815260200191505060405180910390f35b3480156109c157600080fd5b506109ca612b64565b005b3480156109d857600080fd5b506109e1612cc9565b005b3480156109ef57600080fd5b506109f861306c565b6040518082815260200191505060405180910390f35b348015610a1a57600080fd5b50610a3960048036038101908080359060200190929190505050613072565b6040518085600019166000191681526020018473ffffffffffffffffffffffffffffffffffffffff1673ffffffffffffffffffffffffffffffffffffffff1681526020018373ffffffffffffffffffffffffffffffffffffffff1673ffffffffffffffffffffffffffffffffffffffff16815260200182815260200194505050505060405180910390f35b348015610ad057600080fd5b50610b05600480360381019080803573ffffffffffffffffffffffffffffffffffffffff1690602001909291905050506130f1565b005b348015610b1357600080fd5b50610b36600480360381019080803560001916906020019092919050505061319f565b6040518082815260200191505060405180910390f35b610b54611efa565b1515610bee576040517f08c379a00000000000000000000000000000000000000000000000000000000081526004018080602001828103825260268152602001807f4f6e6c7920746865206f776e6572206d617920706572666f726d20746869732081526020017f616374696f6e000000000000000000000000000000000000000000000000000081525060400191505060405180910390fd5b60046005811115610bfb57fe5b600c60009054906101000a900460ff166005811115610c1657fe5b141515610cb1576040517f08c379a00000000000000000000000000000000000000000000000000000000081526004018080602001828103825260228152602001807f466c69676874206d75737420626520696e2046696e616c69736564207374617481526020017f757300000000000000000000000000000000000000000000000000000000000081525060400191505060405180910390fd5b6005600c60006101000a81548160ff02191690836005811115610cd057fe5b0217905550565b610cdf611efa565b1515610d79576040517f08c379a00000000000000000000000000000000000000000000000000000000081526004018080602001828103825260268152602001807f4f6e6c7920746865206f776e6572206d617920706572666f726d20746869732081526020017f616374696f6e000000000000000000000000000000000000000000000000000081525060400191505060405180910390fd5b8060058190555050565b600c60009054906101000a900460ff1681565b60016005811115610da357fe5b600c60009054906101000a900460ff166005811115610dbe57fe5b141515610e33576040517f08c379a000000000000000000000000000000000000000000000000000000000815260040180806020018281038252601d8152602001807f466c69676874206d75737420626520696e2053616c652073746174757300000081525060200191505060405180910390fd5b600034111515610eab576040517f08c379a000000000000000000000000000000000000000000000000000000000815260040180806020018281038252601f8152602001807f5072696365206d7573742062652067726561746572207468616e207a65726f0081525060200191505060405180910390fd5b600081111515610f23576040517f08c379a000000000000000000000000000000000000000000000000000000000815260040180806020018281038252601e8152602001807f4e756d626572206f662073656174732063616e6e6f74206265207a65726f000081525060200191505060405180910390fd5b806005540234141515610fea576040517f08c379a00000000000000000000000000000000000000000000000000000000081526004018080602001828103825260418152602001807f56616c7565206d75737420626520746865206e756d626572206f66207365617481526020017f73206d756c7469706c696564206279207468652063757272656e74207072696381526020017f650000000000000000000000000000000000000000000000000000000000000081525060600191505060405180910390fd5b600354811115151561108a576040517f08c379a000000000000000000000000000000000000000000000000000000000815260040180806020018281038252602f8152602001807f546865726520617265206e6f7420656e6f75676820736561747320746f206d6181526020017f6b65207468697320626f6f6b696e67000000000000000000000000000000000081525060400191505060405180910390fd5b60018114801561109f57506000600b80549050145b156110b1576110ac613306565b6110ed565b60018111156110c8576110c38161358a565b6110ec565b6001811480156110dd57506000600b80549050115b156110eb576110ea6135ae565b5b5b5b50565b6110f8611efa565b1515611192576040517f08c379a00000000000000000000000000000000000000000000000000000000081526004018080602001828103825260268152602001807f4f6e6c7920746865206f776e6572206d617920706572666f726d20746869732081526020017f616374696f6e000000000000000000000000000000000000000000000000000081525060400191505060405180910390fd5b600060025411151561120c576040517f08c379a00000000000000000000000000000000000000000000000000000000081526004018080602001828103825260168152602001807f466c69676874206d75737420686176652073656174730000000000000000000081525060200191505060405180910390fd5b6000600160009054906101000a900473ffffffffffffffffffffffffffffffffffffffff1673ffffffffffffffffffffffffffffffffffffffff16141515156112bd576040517f08c379a000000000000000000000000000000000000000000000000000000000815260040180806020018281038252601c8152602001807f466c69676874206d7573742068617665206120726567756c61746f720000000081525060200191505060405180910390fd5b6000600654600019161415151561133c576040517f08c379a00000000000000000000000000000000000000000000000000000000081526004018080602001828103825260168152602001807f466c69676874206d757374206861766520616e2049440000000000000000000081525060200191505060405180910390fd5b6001600c60006101000a81548160ff0219169083600581111561135b57fe5b0217905550600654600019167f296d469580368394d8900bf6d30b751620d09fdda0232dc67a2097955bf54d4c60405160405180910390a2565b61139d611efa565b1515611437576040517f08c379a00000000000000000000000000000000000000000000000000000000081526004018080602001828103825260268152602001807f4f6e6c7920746865206f776e6572206d617920706572666f726d20746869732081526020017f616374696f6e000000000000000000000000000000000000000000000000000081525060400191505060405180910390fd5b8060038190555050565b60065481565b600080600080600080600a6008600089600019166000191681526020019081526020016000205481548110151561147a57fe5b9060005260206000209060040201905060086000886000191660001916815260200190815260200160002054878260010160009054906101000a900473ffffffffffffffffffffffffffffffffffffffff168360020160009054906101000a900473ffffffffffffffffffffffffffffffffffffffff168460030154955095509550955095505091939590929450565b611512611efa565b15156115ac576040517f08c379a00000000000000000000000000000000000000000000000000000000081526004018080602001828103825260268152602001807f4f6e6c7920746865206f776e6572206d617920706572666f726d20746869732081526020017f616374696f6e000000000000000000000000000000000000000000000000000081525060400191505060405180910390fd5b806006816000191690555050565b6000600b80549050905090565b600080600760003373ffffffffffffffffffffffffffffffffffffffff1673ffffffffffffffffffffffffffffffffffffffff168152602001908152602001600020805490501115156116a8576040517f08c379a00000000000000000000000000000000000000000000000000000000081526004018080602001828103825260258152602001807f53656e646572206d7573742068617665207365617473206f6e2074686973206681526020017f6c6967687400000000000000000000000000000000000000000000000000000081525060400191505060405180910390fd5b600760003373ffffffffffffffffffffffffffffffffffffffff1673ffffffffffffffffffffffffffffffffffffffff168152602001908152602001600020828154811015156116f457fe5b90600052602060002001549050919050565b60045481565b60606000600760003373ffffffffffffffffffffffffffffffffffffffff1673ffffffffffffffffffffffffffffffffffffffff168152602001908152602001600020805490501115156117ee576040517f08c379a00000000000000000000000000000000000000000000000000000000081526004018080602001828103825260258152602001807f53656e646572206d7573742068617665207365617473206f6e2074686973206681526020017f6c6967687400000000000000000000000000000000000000000000000000000081525060400191505060405180910390fd5b600760003373ffffffffffffffffffffffffffffffffffffffff1673ffffffffffffffffffffffffffffffffffffffff16815260200190815260200160002080548060200260200160405190810160405280929190818152602001828054801561187757602002820191906000526020600020905b815481526020019060010190808311611863575b5050505050905090565b6000600760003373ffffffffffffffffffffffffffffffffffffffff1673ffffffffffffffffffffffffffffffffffffffff16815260200190815260200160002080549050111515611961576040517f08c379a00000000000000000000000000000000000000000000000000000000081526004018080602001828103825260258152602001807f53656e646572206d7573742068617665207365617473206f6e2074686973206681526020017f6c6967687400000000000000000000000000000000000000000000000000000081525060400191505060405180910390fd5b3373ffffffffffffffffffffffffffffffffffffffff16600a8381548110151561198757fe5b906000526020600020906004020160010160009054906101000a900473ffffffffffffffffffffffffffffffffffffffff1673ffffffffffffffffffffffffffffffffffffffff16141515611a6a576040517f08c379a00000000000000000000000000000000000000000000000000000000081526004018080602001828103825260228152602001807f596f7520617265206e6f7420746865206f776e6572206f66207468697320736581526020017f617400000000000000000000000000000000000000000000000000000000000081525060400191505060405180910390fd5b80600a83815481101515611a7a57fe5b906000526020600020906004020160020160006101000a81548173ffffffffffffffffffffffffffffffffffffffff021916908373ffffffffffffffffffffffffffffffffffffffff16021790555081600960008373ffffffffffffffffffffffffffffffffffffffff1673ffffffffffffffffffffffffffffffffffffffff168152602001908152602001600020819055503373ffffffffffffffffffffffffffffffffffffffff16600654600019167fed9dbc00871ab66fe91b702825c088aad8afa52119bc6d89817a301b553ce04c600a85815481101515611b5b57fe5b90600052602060002090600402016000015460405180826000191660001916815260200191505060405180910390a35050565b611b96611efa565b1515611c30576040517f08c379a00000000000000000000000000000000000000000000000000000000081526004018080602001828103825260268152602001807f4f6e6c7920746865206f776e6572206d617920706572666f726d20746869732081526020017f616374696f6e000000000000000000000000000000000000000000000000000081525060400191505060405180910390fd5b60026005811115611c3d57fe5b600c60009054906101000a900460ff166005811115611c5857fe5b141515611ccd576040517f08c379a000000000000000000000000000000000000000000000000000000000815260040180806020018281038252601f8152602001807f466c69676874206d75737420626520696e20436c6f736564207374617475730081525060200191505060405180910390fd5b6003600c60006101000a81548160ff02191690836005811115611cec57fe5b0217905550600654600019167fd04aa9134d8671223bcf1a1e9772787b447d75097b41dbda4f41feae404140b860405160405180910390a2565b60035481565b611d34611efa565b1515611dce576040517f08c379a00000000000000000000000000000000000000000000000000000000081526004018080602001828103825260268152602001807f4f6e6c7920746865206f776e6572206d617920706572666f726d20746869732081526020017f616374696f6e000000000000000000000000000000000000000000000000000081525060400191505060405180910390fd5b6000809054906101000a900473ffffffffffffffffffffffffffffffffffffffff1673ffffffffffffffffffffffffffffffffffffffff167ff8df31144d9c2f0f6b59d69b8b98abd5459d07f2742c4df920b25aae33c6482060405160405180910390a260008060006101000a81548173ffffffffffffffffffffffffffffffffffffffff021916908373ffffffffffffffffffffffffffffffffffffffff160217905550565b600160009054906101000a900473ffffffffffffffffffffffffffffffffffffffff1681565b600760205281600052604060002081815481101515611eb657fe5b90600052602060002001600091509150505481565b60025481565b60008060009054906101000a900473ffffffffffffffffffffffffffffffffffffffff16905090565b60008060009054906101000a900473ffffffffffffffffffffffffffffffffffffffff1673ffffffffffffffffffffffffffffffffffffffff163373ffffffffffffffffffffffffffffffffffffffff1614905090565b60003373ffffffffffffffffffffffffffffffffffffffff16600a83815481101515611f7957fe5b906000526020600020906004020160010160009054906101000a900473ffffffffffffffffffffffffffffffffffffffff1673ffffffffffffffffffffffffffffffffffffffff1614151561205c576040517f08c379a00000000000000000000000000000000000000000000000000000000081526004018080602001828103825260268152602001807f54686973207365617420646f6573206e6f742062656c6f6e6720746f2074686981526020017f732075736572000000000000000000000000000000000000000000000000000081525060400191505060405180910390fd5b3373ffffffffffffffffffffffffffffffffffffffff16600a8381548110151561208257fe5b906000526020600020906004020160020160009054906101000a900473ffffffffffffffffffffffffffffffffffffffff1673ffffffffffffffffffffffffffffffffffffffff16141561211457600960003373ffffffffffffffffffffffffffffffffffffffff1673ffffffffffffffffffffffffffffffffffffffff168152602001908152602001600020600090555b600090505b6001600760003373ffffffffffffffffffffffffffffffffffffffff1673ffffffffffffffffffffffffffffffffffffffff168152602001908152602001600020805490500381101561232257600760003373ffffffffffffffffffffffffffffffffffffffff1673ffffffffffffffffffffffffffffffffffffffff168152602001908152602001600020818154811015156121b257fe5b906000526020600020015482141561231557600760003373ffffffffffffffffffffffffffffffffffffffff1673ffffffffffffffffffffffffffffffffffffffff1681526020019081526020016000208181548110151561221057fe5b9060005260206000200160009055600760003373ffffffffffffffffffffffffffffffffffffffff1673ffffffffffffffffffffffffffffffffffffffff1681526020019081526020016000206001600760003373ffffffffffffffffffffffffffffffffffffffff1673ffffffffffffffffffffffffffffffffffffffff16815260200190815260200160002080549050038154811015156122af57fe5b9060005260206000200154600760003373ffffffffffffffffffffffffffffffffffffffff1673ffffffffffffffffffffffffffffffffffffffff1681526020019081526020016000208281548110151561230657fe5b90600052602060002001819055505b8080600101915050612119565b600760003373ffffffffffffffffffffffffffffffffffffffff1673ffffffffffffffffffffffffffffffffffffffff16815260200190815260200160002080548091906001900361237491906139fd565b50600b8290806001815401808255809150509060018203906000526020600020016000909192909190915055503373ffffffffffffffffffffffffffffffffffffffff166108fc600a848154811015156123ca57fe5b9060005260206000209060040201600301549081150290604051600060405180830381858888f19350505050158015612407573d6000803e3d6000fd5b506000600a8381548110151561241957fe5b906000526020600020906004020160010160006101000a81548173ffffffffffffffffffffffffffffffffffffffff021916908373ffffffffffffffffffffffffffffffffffffffff1602179055506000600a8381548110151561247957fe5b906000526020600020906004020160020160006101000a81548173ffffffffffffffffffffffffffffffffffffffff021916908373ffffffffffffffffffffffffffffffffffffffff1602179055506000600a838154811015156124d957fe5b906000526020600020906004020160030181905550600360008154809291906001019190505550600654600019167f51219a16bbaf2523d2cd0e0ffa450b949fda85877171b868d895be11ab7c63ba600a8481548110151561253757fe5b90600052602060002090600402016000015460405180826000191660001916815260200191505060405180910390a25050565b600080600080600080600a600960003373ffffffffffffffffffffffffffffffffffffffff1673ffffffffffffffffffffffffffffffffffffffff168152602001908152602001600020548154811015156125c157fe5b90600052602060002090600402019050600960003373ffffffffffffffffffffffffffffffffffffffff1673ffffffffffffffffffffffffffffffffffffffff1681526020019081526020016000205481600001548260010160009054906101000a900473ffffffffffffffffffffffffffffffffffffffff168360020160009054906101000a900473ffffffffffffffffffffffffffffffffffffffff16846003015495509550955095509550509091929394565b61267f611efa565b1515612719576040517f08c379a00000000000000000000000000000000000000000000000000000000081526004018080602001828103825260268152602001807f4f6e6c7920746865206f776e6572206d617920706572666f726d20746869732081526020017f616374696f6e000000000000000000000000000000000000000000000000000081525060400191505060405180910390fd5b6003600581111561272657fe5b600c60009054906101000a900460ff16600581111561274157fe5b1415156127b6576040517f08c379a000000000000000000000000000000000000000000000000000000000815260040180806020018281038252601f8152602001807f466c69676874206d75737420626520696e204c616e646564207374617475730081525060200191505060405180910390fd5b6004600c60006101000a81548160ff021916908360058111156127d557fe5b0217905550565b6127e4611efa565b151561287e576040517f08c379a00000000000000000000000000000000000000000000000000000000081526004018080602001828103825260268152602001807f4f6e6c7920746865206f776e6572206d617920706572666f726d20746869732081526020017f616374696f6e000000000000000000000000000000000000000000000000000081525060400191505060405180910390fd5b80600160006101000a81548173ffffffffffffffffffffffffffffffffffffffff021916908373ffffffffffffffffffffffffffffffffffffffff16021790555050565b6128ca611efa565b1515612964576040517f08c379a00000000000000000000000000000000000000000000000000000000081526004018080602001828103825260268152602001807f4f6e6c7920746865206f776e6572206d617920706572666f726d20746869732081526020017f616374696f6e000000000000000000000000000000000000000000000000000081525060400191505060405180910390fd5b61296c611ed1565b73ffffffffffffffffffffffffffffffffffffffff16600654600019167f8fb8e8a0b20293ca4c36d58df64f030aca3d302f25e5ecb916fc857cb7402fb63073ffffffffffffffffffffffffffffffffffffffff16316040518082815260200191505060405180910390a36129df611ed1565b73ffffffffffffffffffffffffffffffffffffffff16ff5b60086020528060005260406000206000915090505481565b612a17611efa565b1515612ab1576040517f08c379a00000000000000000000000000000000000000000000000000000000081526004018080602001828103825260268152602001807f4f6e6c7920746865206f776e6572206d617920706572666f726d20746869732081526020017f616374696f6e000000000000000000000000000000000000000000000000000081525060400191505060405180910390fd5b8060028190555050565b600080600080600080600a87815481101515612ad357fe5b906000526020600020906004020190508681600001548260010160009054906101000a900473ffffffffffffffffffffffffffffffffffffffff168360020160009054906101000a900473ffffffffffffffffffffffffffffffffffffffff168460030154955095509550955095505091939590929450565b60096020528060005260406000206000915090505481565b612b6c611efa565b1515612c06576040517f08c379a00000000000000000000000000000000000000000000000000000000081526004018080602001828103825260268152602001807f4f6e6c7920746865206f776e6572206d617920706572666f726d20746869732081526020017f616374696f6e000000000000000000000000000000000000000000000000000081525060400191505060405180910390fd5b60016005811115612c1357fe5b600c60009054906101000a900460ff166005811115612c2e57fe5b141515612ca3576040517f08c379a000000000000000000000000000000000000000000000000000000000815260040180806020018281038252601d8152602001807f466c69676874206d75737420626520696e2053616c652073746174757300000081525060200191505060405180910390fd5b6002600c60006101000a81548160ff02191690836005811115612cc257fe5b0217905550565b6000806000600760003373ffffffffffffffffffffffffffffffffffffffff1673ffffffffffffffffffffffffffffffffffffffff16815260200190815260200160002080549050111515612dac576040517f08c379a00000000000000000000000000000000000000000000000000000000081526004018080602001828103825260258152602001807f53656e646572206d7573742068617665207365617473206f6e2074686973206681526020017f6c6967687400000000000000000000000000000000000000000000000000000081525060400191505060405180910390fd5b600580811115612db857fe5b600c60009054906101000a900460ff166005811115612dd357fe5b141515612e6e576040517f08c379a00000000000000000000000000000000000000000000000000000000081526004018080602001828103825260228152602001807f466c69676874206d75737420626520696e2043616e63656c6c6564207374617481526020017f757300000000000000000000000000000000000000000000000000000000000081525060400191505060405180910390fd5b600091505b600760003373ffffffffffffffffffffffffffffffffffffffff1673ffffffffffffffffffffffffffffffffffffffff16815260200190815260200160002080549050811015612f7f57600760003373ffffffffffffffffffffffffffffffffffffffff1673ffffffffffffffffffffffffffffffffffffffff16815260200190815260200160002081815481101515612f0957fe5b906000526020600020015482019150600760003373ffffffffffffffffffffffffffffffffffffffff1673ffffffffffffffffffffffffffffffffffffffff16815260200190815260200160002081815481101515612f6457fe5b90600052602060002001600090558080600101915050612e73565b6000600760003373ffffffffffffffffffffffffffffffffffffffff1673ffffffffffffffffffffffffffffffffffffffff16815260200190815260200160002081612fcb91906139fd565b503373ffffffffffffffffffffffffffffffffffffffff16600654600019167fef721ab9dbabd936e63830e699f561906f54d10c719c44613ac44907d7f01a11846040518082815260200191505060405180910390a33373ffffffffffffffffffffffffffffffffffffffff166108fc839081150290604051600060405180830381858888f19350505050158015613067573d6000803e3d6000fd5b505050565b60055481565b600a8181548110151561308157fe5b90600052602060002090600402016000915090508060000154908060010160009054906101000a900473ffffffffffffffffffffffffffffffffffffffff16908060020160009054906101000a900473ffffffffffffffffffffffffffffffffffffffff16908060030154905084565b6130f9611efa565b1515613193576040517f08c379a00000000000000000000000000000000000000000000000000000000081526004018080602001828103825260268152602001807f4f6e6c7920746865206f776e6572206d617920706572666f726d20746869732081526020017f616374696f6e000000000000000000000000000000000000000000000000000081525060400191505060405180910390fd5b61319c81613874565b50565b6000600a60806040519081016040528084600019168152602001600073ffffffffffffffffffffffffffffffffffffffff168152602001600073ffffffffffffffffffffffffffffffffffffffff1681526020016000815250908060018154018082558091505090600182039060005260206000209060040201600090919290919091506000820151816000019060001916905560208201518160010160006101000a81548173ffffffffffffffffffffffffffffffffffffffff021916908373ffffffffffffffffffffffffffffffffffffffff16021790555060408201518160020160006101000a81548173ffffffffffffffffffffffffffffffffffffffff021916908373ffffffffffffffffffffffffffffffffffffffff160217905550606082015181600301555050506001600a8054905003600860008460001916600019168152602001908152602001600020819055506001600a80549050039050919050565b600760003373ffffffffffffffffffffffffffffffffffffffff1673ffffffffffffffffffffffffffffffffffffffff1681526020019081526020016000206004549080600181540180825580915050906001820390600052602060002001600090919290919091505550600454600960003373ffffffffffffffffffffffffffffffffffffffff1673ffffffffffffffffffffffffffffffffffffffff1681526020019081526020016000208190555033600a6004548154811015156133c957fe5b906000526020600020906004020160010160006101000a81548173ffffffffffffffffffffffffffffffffffffffff021916908373ffffffffffffffffffffffffffffffffffffffff16021790555033600a60045481548110151561342a57fe5b906000526020600020906004020160020160006101000a81548173ffffffffffffffffffffffffffffffffffffffff021916908373ffffffffffffffffffffffffffffffffffffffff160217905550600554600a60045481548110151561348d57fe5b906000526020600020906004020160030181905550600a6004548154811015156134b357fe5b906000526020600020906004020160010160009054906101000a900473ffffffffffffffffffffffffffffffffffffffff1673ffffffffffffffffffffffffffffffffffffffff16600654600019167f10fc8468ae793318338006260b422c51971f60e9b1839f18180374c0468cfff1600a60045481548110151561353457fe5b90600052602060002090600402016000015460405180826000191660001916815260200191505060405180910390a360046000815480929190600101919050555060036000815480929190600190039190505550565b60005b818110156135aa5761359d613306565b808060010191505061358d565b5050565b6000600b6001600b80549050038154811015156135c757fe5b90600052602060002001549050600b6001600b80549050038154811015156135eb57fe5b9060005260206000200160009055600b80548091906001900361360e91906139fd565b5060036000815480929190600190039190505550600760003373ffffffffffffffffffffffffffffffffffffffff1673ffffffffffffffffffffffffffffffffffffffff16815260200190815260200160002081908060018154018082558091505090600182039060005260206000200160009091929091909150555080600960003373ffffffffffffffffffffffffffffffffffffffff1673ffffffffffffffffffffffffffffffffffffffff1681526020019081526020016000208190555033600a828154811015156136df57fe5b906000526020600020906004020160010160006101000a81548173ffffffffffffffffffffffffffffffffffffffff021916908373ffffffffffffffffffffffffffffffffffffffff16021790555033600a8281548110151561373e57fe5b906000526020600020906004020160020160006101000a81548173ffffffffffffffffffffffffffffffffffffffff021916908373ffffffffffffffffffffffffffffffffffffffff160217905550600554600a8281548110151561379f57fe5b906000526020600020906004020160030181905550600a818154811015156137c357fe5b906000526020600020906004020160010160009054906101000a900473ffffffffffffffffffffffffffffffffffffffff1673ffffffffffffffffffffffffffffffffffffffff16600654600019167f10fc8468ae793318338006260b422c51971f60e9b1839f18180374c0468cfff1600a8481548110151561384257fe5b90600052602060002090600402016000015460405180826000191660001916815260200191505060405180910390a350565b600073ffffffffffffffffffffffffffffffffffffffff168173ffffffffffffffffffffffffffffffffffffffff161415151561393f576040517f08c379a00000000000000000000000000000000000000000000000000000000081526004018080602001828103825260358152602001807f4f776e6572736869702063616e6e6f74206265207472616e736665727265642081526020017f746f20616e20696e76616c69642061646472657373000000000000000000000081525060400191505060405180910390fd5b8073ffffffffffffffffffffffffffffffffffffffff166000809054906101000a900473ffffffffffffffffffffffffffffffffffffffff1673ffffffffffffffffffffffffffffffffffffffff167f8be0079c531659141344cd1fd0a4f28419497f9722a3daafe3b4186f6b6457e060405160405180910390a3806000806101000a81548173ffffffffffffffffffffffffffffffffffffffff021916908373ffffffffffffffffffffffffffffffffffffffff16021790555050565b815481835581811115613a2457818360005260206000209182019101613a239190613a29565b5b505050565b613a4b91905b80821115613a47576000816000905550600101613a2f565b5090565b905600a165627a7a72305820a3444fb6c9d285c9998c209ceb28b95dd9b252bd308e60f73fbc5743399bcff50029",
  "source": "pragma solidity ^0.4.24;\n\nimport \"./Ownable.sol\";\n\ncontract Flight is Ownable {\n\n    event TicketPurchased(address indexed purchaser);\n    event FlightEnabled(bytes32 indexed flightId);\n    event FlightLanded(bytes32 indexed flightId);\n    event FlightCancelled(bytes32 indexed flightId);\n    event SeatBooked(bytes32 indexed flightId, address indexed owner, bytes32 uuid);\n    event SeatCancelled(bytes32 indexed flightId, bytes32 uuid);\n    event SeatTransferred(bytes32 indexed flightId, address indexed owner, bytes32 uuid);\n    event RefundSent(bytes32 indexed flightId, address indexed owner, uint amount);\n    event FlightConcluded(bytes32 indexed flightId, address indexed owner, uint amount);\n\n    address public _regulator;\n\n    uint public _seatCount;\n    uint public _seatsRemaining;\n    uint public _seatPurchaseIndex = 0;\n    uint public _seatPrice;\n\n    bytes32 public _flightId;\n\n    struct Seat {\n        bytes32 uuid;\n        address owner;\n        address passenger;\n        uint price;\n    }\n\n    struct Rarity {\n        address starter;\n        uint price;\n    }\n\n    mapping(address => uint[]) public _ownerSeats;\n    mapping(bytes32 => uint) public _seatIndexFromUuid;\n    mapping(address => uint) public _passengerSeat;\n    Seat[] public _seats;\n\n    uint[] private _skippedSeats;\n\n    enum FlightStatus { Presale, Sale, Closed, Landed, Finalised, Cancelled }\n    FlightStatus public _status;\n\n    constructor(bytes32 flightId) public {\n        _status = FlightStatus.Presale;\n        _flightId = flightId;\n    }\n\n    function addRegulator(address regulator) public onlyOwner {\n        _regulator = regulator;\n    }\n\n    function setSeatPrice(uint seatPrice) public onlyOwner {\n        _seatPrice = seatPrice;\n    }\n\n    function enableFlight() public onlyOwner {\n        require(_seatCount > 0, \"Flight must have seats\");\n        require(_regulator != 0, \"Flight must have a regulator\");\n        require(_flightId != \"\", \"Flight must have an ID\");\n        _status = FlightStatus.Sale;\n        emit FlightEnabled(_flightId);\n    }\n\n    function getOwnerSeat(uint _index) public view hasTicket returns(uint) {\n        return _ownerSeats[msg.sender][_index];\n    }\n\n    function getOwnerSeats() public view hasTicket returns(uint[]) {\n        return _ownerSeats[msg.sender];\n    }\n\n    function transferSeat(uint _seatIndex, address _transferTo) public hasTicket {\n        require(_seats[_seatIndex].owner == msg.sender, \"You are not the owner of this seat\");\n        _seats[_seatIndex].passenger = _transferTo;\n        _passengerSeat[_transferTo] = _seatIndex;\n\n        emit SeatTransferred(_flightId, msg.sender, _seats[_seatIndex].uuid);\n    }\n\n    function closeFlight() public onlyOwner onlySale {\n        _status = FlightStatus.Closed;\n    }\n\n    function landFlight() public onlyOwner onlyClosed {\n        _status = FlightStatus.Landed;\n        emit FlightLanded(_flightId);\n    }\n\n    function finaliseFlight() public onlyOwner onlyLanded {\n        _status = FlightStatus.Finalised;\n    }\n\n    function cancelFlight() public onlyOwner onlyFinalised {\n        _status = FlightStatus.Cancelled;\n    }\n\n    function setFlightId(bytes32 flightId) public onlyOwner {\n        _flightId = flightId;\n    }\n\n    function setSeatCount(uint seatCount) public onlyOwner {\n        _seatCount = seatCount;\n    }\n\n    function setRemainingSeats(uint seatsRemaining) public onlyOwner {\n        _seatsRemaining = seatsRemaining;\n    }\n\n    /**\n     * Passenger Actions\n     */\n\n    function book(uint numberOfSeats) public payable onlySale {\n        require(msg.value > 0, \"Price must be greater than zero\");\n        require(numberOfSeats > 0, \"Number of seats cannot be zero\");\n        require(msg.value == _seatPrice * numberOfSeats, \"Value must be the number of seats multiplied by the current price\");\n        require(numberOfSeats <= _seatsRemaining, \"There are not enough seats to make this booking\");\n\n        if (numberOfSeats == 1 && _skippedSeats.length == 0) {\n            bookOneSeat();\n        } else if (numberOfSeats > 1) {\n            bookMultipleSeats(numberOfSeats);\n        } else if (numberOfSeats == 1 && _skippedSeats.length > 0) {\n            bookSkippedSeat();\n        }\n    }\n\n    function loadSeat(bytes32 uuid) public returns(uint) {\n        _seats.push(Seat(uuid, address(0), address(0), 0));\n        _seatIndexFromUuid[uuid] = _seats.length-1;\n        return _seats.length-1;\n    }\n\n    function getSeatByIndex(uint index)\n        public\n        view\n        returns(uint, bytes32, address, address, uint)\n    {\n        Seat storage searchSeat = _seats[index];\n        return (index, searchSeat.uuid, searchSeat.owner, searchSeat.passenger, searchSeat.price);\n    }\n\n    function getSeatByUuid(bytes32 uuid)\n        public\n        view\n        returns(uint, bytes32, address, address, uint)\n    {\n        Seat storage searchSeat = _seats[_seatIndexFromUuid[uuid]];\n        return (_seatIndexFromUuid[uuid], uuid, searchSeat.owner, searchSeat.passenger, searchSeat.price);\n    }\n\n    function getPassengerSeat() public view returns(uint, bytes32, address, address, uint) {\n        Seat storage searchSeat = _seats[_passengerSeat[msg.sender]];\n        return (_passengerSeat[msg.sender], searchSeat.uuid, searchSeat.owner, searchSeat.passenger, searchSeat.price);\n    }\n\n    function bookOneSeat() private {\n        _ownerSeats[msg.sender].push(_seatPurchaseIndex);\n        _passengerSeat[msg.sender] = _seatPurchaseIndex;\n\n        _seats[_seatPurchaseIndex].owner = msg.sender;\n        _seats[_seatPurchaseIndex].passenger = msg.sender;\n        _seats[_seatPurchaseIndex].price = _seatPrice;\n\n        emit SeatBooked(_flightId, _seats[_seatPurchaseIndex].owner, _seats[_seatPurchaseIndex].uuid);\n\n        _seatPurchaseIndex++;\n        _seatsRemaining--;\n    }\n\n    function bookSkippedSeat() private {\n\n        uint skippedSeatIndex = _skippedSeats[_skippedSeats.length-1];\n        delete _skippedSeats[_skippedSeats.length-1];\n        _skippedSeats.length--;\n\n        _seatsRemaining--;\n\n        _ownerSeats[msg.sender].push(skippedSeatIndex);\n        _passengerSeat[msg.sender] = skippedSeatIndex;\n\n        _seats[skippedSeatIndex].owner = msg.sender;\n        _seats[skippedSeatIndex].passenger = msg.sender;\n        _seats[skippedSeatIndex].price = _seatPrice;\n\n        emit SeatBooked(_flightId, _seats[skippedSeatIndex].owner, _seats[skippedSeatIndex].uuid);\n    }\n\n    function cancelSeat(uint seatIndex) public {\n        require(_seats[seatIndex].owner == msg.sender, \"This seat does not belong to this user\");\n\n        if (_seats[seatIndex].passenger == msg.sender) {\n            delete _passengerSeat[msg.sender];\n        }\n\n        for (uint i = 0; i < _ownerSeats[msg.sender].length-1; i++) {\n            if (seatIndex == _ownerSeats[msg.sender][i]) {\n                delete _ownerSeats[msg.sender][i];\n                _ownerSeats[msg.sender][i] = _ownerSeats[msg.sender][_ownerSeats[msg.sender].length-1];\n            }\n        }\n\n        _ownerSeats[msg.sender].length--;\n        _skippedSeats.push(seatIndex);\n\n        msg.sender.transfer(_seats[seatIndex].price);\n\n        _seats[seatIndex].owner = address(0);\n        _seats[seatIndex].passenger = address(0);\n        _seats[seatIndex].price = 0;\n\n        _seatsRemaining++;\n\n        emit SeatCancelled(_flightId, _seats[seatIndex].uuid);\n    }\n\n    function bookMultipleSeats(uint numberOfSeats) private {\n        for (uint i; i < numberOfSeats; i++) {\n            bookOneSeat();\n        }\n    }\n\n    function getSkippedSeatCount() public view returns(uint) {\n        return _skippedSeats.length;\n    }\n\n    function requestRefund() public hasTicket onlyCancelled {\n        uint totalRefund = 0;\n        for(uint i; i < _ownerSeats[msg.sender].length; i++){\n            totalRefund += _ownerSeats[msg.sender][i];\n            delete _ownerSeats[msg.sender][i];\n        }\n        _ownerSeats[msg.sender].length = 0;\n\n        emit RefundSent(_flightId, msg.sender, totalRefund);\n        msg.sender.transfer(totalRefund);\n    }\n\n    function concludeFlight() public onlyOwner {\n        emit FlightConcluded(_flightId, owner(), address(this).balance);\n        selfdestruct(owner());\n    }\n\n    /**\n     * Modifiers\n     */\n\n    modifier onlyRegulator(){\n        require(msg.sender == _regulator, \"Sender must be a regulator\");\n        _;\n    }\n\n    modifier onlyPresale(){\n        require(_status == FlightStatus.Presale, \"Flight must be in Presale status\");\n        _;\n    }\n\n    modifier onlySale(){\n        require(_status == FlightStatus.Sale, \"Flight must be in Sale status\");\n        _;\n    }\n\n    modifier onlyClosed(){\n        require(_status == FlightStatus.Closed, \"Flight must be in Closed status\");\n        _;\n    }\n\n    modifier onlyLanded(){\n        require(_status == FlightStatus.Landed, \"Flight must be in Landed status\");\n        _;\n    }\n\n    modifier onlyFinalised(){\n        require(_status == FlightStatus.Finalised, \"Flight must be in Finalised status\");\n        _;\n    }\n\n    modifier onlyCancelled(){\n        require(_status == FlightStatus.Cancelled, \"Flight must be in Cancelled status\");\n        _;\n    }\n\n    modifier hasTicket(){\n        require(_ownerSeats[msg.sender].length > 0, \"Sender must have seats on this flight\");\n        _;\n    }\n}",
  "sourcePath": "/Users/matt/Code/fairline-contract/contracts/Flight.sol",
  "compiler": {
    "name": "solc",
    "version": "0.4.24+commit.e67f0147.Emscripten.clang"
  },
  "schemaVersion": "3.0.0-beta.0",
  "updatedAt": "2018-10-02T01:03:58.472Z"
}